:020000040800F2
:1000000000000220C508000841080008490800084F
:1000100051080008590800086108000800000000A5
:100020000000000000000000000000006908000857
:100030007708000800000000850800089308000801
:100040001509000815090008150900081509000818
:100050001509000815090008150900081509000808
:1000600015090008150900081509000815090008F8
:1000700015090008150900081509000815090008E8
:1000800015090008150900081509000815090008D8
:1000900015090008150900081509000815090008C8
:1000A00015090008150900081509000815090008B8
:1000B00015090008150900081509000815090008A8
:1000C0001509000815090008150900081509000898
:1000D0001509000815090008150900081509000888
:1000E0001509000815090008150900081509000878
:1000F0001509000815090008150900081509000868
:100100001509000815090008150900081509000857
:100110001509000815090008150900081509000847
:100120001509000815090008150900081509000837
:100130001509000800000000000000001509000873
:100140001509000815090008150900081509000817
:100150001509000815090008150900081509000807
:1001600015090008150900081509000815090008F7
:10017000150900081509000815090008000000000D
:100180000000000015090008000000000000000049
:100190001509000800000000000000001509000813
:1001A0000000000000000000000000001509000829
:1001B00015090008150900081509000815090008A7
:0401C0001509000815
:1001C40010B5054C237833B9044B13B10448AFF38D
:1001D40000800123237010BD0C00002000000000EB
:1001E4006824000808B5034B1BB103490348AFF367
:1001F400008008BD000000001000002068240008F2
:1002040053B94AB9002908BF00281CBF4FF0FF3179
:100214004FF0FF3000F088B9ADF1080C6DE904CE61
:1002240000F006F8DDF804E0DDE9022304B07047CD
:100234002DE9F047089D8E4604468846002B4AD196
:100244008A42174662D9B2FA82F64EB1C6F1200349
:1002540001FA06F820FA03F3B74043EA0808B44069
:100264004FEA174E1FFA87FCB8FBFEF1230C0EFB76
:10027400118843EA084301FB0CF29A4209D9FB189E
:1002840001F1FF3080F0EA809A4240F2E7800239BF
:100294003B449A1AA3B2B2FBFEF00EFB102243EACF
:1002A400024300FB0CFC9C4509D9FB1800F1FF320A
:1002B40080F0D6809C4540F2D3803B44023840EA2B
:1002C4000140A3EB0C0300211DB1F3400022C5E95A
:1002D4000032BDE8F0878B4205D90DB1C5E90001B4
:1002E40000210846F5E7B3FA83F1002946D17345A6
:1002F40002D3824200F20581841A6EEB03020120CC
:100304009046002DE5D0C5E90048E2E7002A00F058
:100314009080B2FA82F6002E40F0A4808A1A030C70
:100324004FEA174E80B2BCB20121B2FBFEFC0EFBB9
:100334001C2243EA024304FB0CF29A4207D9FB183D
:100344000CF1FF3802D29A4200F2E080C4469B1AB4
:10035400B3FBFEF20EFB123340EA034302FB04F448
:100364009C4207D9FB1802F1FF3002D29C4200F2F2
:10037400CA8002461B1B42EA0C40A5E7C1F12006D5
:100384008B4022FA06F71F430EFA01F420FA06F313
:100394002EFA06FE4FEA1749234300FA01F81FFA22
:1003A40087FCBEFBF9F01C0C09FB10EE44EA0E447A
:1003B40000FB0CFEA64502FA01F209D93C1900F132
:1003C400FF3A80F09C80A64540F2998002383C4474
:1003D400A4EB0E041FFA83FEB4FBF9F309FB1344E8
:1003E4004EEA044403FB0CFCA44508D93C1903F170
:1003F400FF3E80F08280A4457FD9023B3C4443EA1F
:100404000040A4EB0C04A0FB02EC64457346E146F7
:1004140062D35FD05DB1B8EB030264EB090404FA64
:1004240006F622FA01F31E43CC40C5E9006400211C
:100434004FE7B1FBF2FC010C41EA0E4180B240EA05
:1004440001423B4638463C46B846BE462026B1FBF0
:10045400F7F1A2EB080241EA0C4166E7014618E70E
:1004640010462CE7C6F120022EFA02F3B740B14041
:1004740020FA02F24FEA174E0A43B3FBFEF8BCB26D
:100484000EFB1833110C41EA034108FB04F9B04098
:1004940089454FEA104380B23ED9791808F1FF3CF0
:1004A40001D289451FD8A1EB0901B1FBFEF909FB73
:1004B40004F80EFB191192B242EA0142424529D2D4
:1004C400BA1809F1FF31C4D24245C2D2A9F10201DE
:1004D4003A44BEE7F0459DD2BEEB02036CEB070C39
:1004E4000138E14696E7A7EB09094944A8F1020C53
:1004F400B1FBFEF909FB04F8DBE773467FE75046DE
:1005040066E70846FDE63B44023A33E7ACF1020CE9
:100514003B441CE749469CE7A1EB0901C446B1FBF7
:10052400FEF909FB04F8C4E7704700BF80B500AFCB
:1005340000F0F0F900F046F800F0D6F800F0A2F868
:100544001B4B01221A701A4B02221A704FF0FF3310
:100554000C221849184801F044FB0346002BEFD144
:10056400134B03221A70134B0022DA72104B04222D
:100574001A700B2211490F4801F038FF0346002B73
:10058400DED101224FF400710D4800F0D3FC084B7A
:1005940005221A70322000F02FFA00224FF4007165
:1005A400074800F0C7FC024B00221A70C8E700BFDE
:1005B4008C000020800000202800002080240008F7
:1005C4000000024080B594B000AF07F11C03342250
:1005D4000021184601F01AFF07F1080300221A60EF
:1005E4005A609A60DA601A6100237B60234B1B6CAB
:1005F400224A43F080531364204B1B6C03F0805356
:100604007B607B6800233B601D4B1B6823F44043E5
:100614001B4A43F480431360194B1B6803F44043A3
:100624003B603B680223FB610123BB621023FB6236
:1006340000237B6307F11C03184600F0ABFF03465D
:10064400002B01D000F084F80F23BB600023FB6073
:1006540000233B6100237B610023BB6107F1080396
:100664000021184600F080FC0346002B01D000F066
:100674006FF800BF5037BD4680BD00BF0038024050
:100684000070004080B500AF154B164A1A60144B39
:1006940000225A60124B00229A60114B0022DA6049
:1006A4000F4B00221A610E4B00225A610C4B0022A0
:1006B4009A610B4B00221A62094B00225A62084BC2
:1006C40000229A62064B0A22DA62054801F000FA17
:1006D4000346002B01D000F03BF800BF80BD00BFF3
:1006E400280000200030014080B586B000AF3B1DDB
:1006F40000221A605A609A60DA601A6100233B6033
:10070400114B1B6B104A43F0010313630E4B1B6B1D
:1007140003F001033B603B6800224FF400710B4877
:1007240000F008FC4FF400737B600123BB600023DE
:10073400FB6000233B613B1D1946044800F066FA48
:1007440000BF1837BD4680BD00380240000002409B
:1007540080B400AF72B600BF00BFFDE780B483B0C1
:1007640000AF00237B60104B5B6C0F4A43F4804363
:1007740053640D4B5B6C03F480437B607B68002304
:100784003B60094B1B6C084A43F080531364064BCF
:100794001B6C03F080533B603B6800BF0C37BD46C5
:1007A4005DF8047B704700BF0038024080B58AB012
:1007B40000AF786007F1140300221A605A609A604F
:1007C400DA601A617B681B68194A93422BD10023B3
:1007D4003B61184B5B6C174A43F480535364154BCD
:1007E4005B6C03F480533B613B690023FB60114B5A
:1007F4001B6B104A43F0010313630E4B1B6B03F096
:100804000103FB60FB68F0237B610223BB610023CF
:10081400FB6103233B6205237B6207F11403194642
:10082400054800F0F3F900BF2837BD4680BD00BF7E
:1008340000300140003802400000024080B400AFA4
:1008440000BFFDE780B400AF00BFFDE780B400AF98
:1008540000BFFDE780B400AF00BFFDE780B400AF88
:1008640000BFFDE780B400AF00BFBD465DF8047B68
:10087400704780B400AF00BFBD465DF8047B70478D
:1008840080B400AF00BFBD465DF8047B704780B5FF
:1008940000AF00F091F800BF80BD000080B400AF4D
:1008A400064BD3F88830054A43F47003C2F8883005
:1008B40000BFBD465DF8047B704700BF00ED00E05B
:1008C400DFF834D0FFF7EAFF0C480D490D4A002346
:1008D40002E0D458C4500433C4188C42F9D30A4AF1
:1008E4000A4C002301E013600432A242FBD301F05E
:1008F40095FDFFF71BFE704700000220000000205A
:100904000C000020AC2400080C00002094000020FF
:10091400FEE7000080B500AF0E4B1B680D4A43F4A0
:10092400007313600B4B1B680A4A43F48063136023
:10093400084B1B68074A43F480731360032000F0DC
:1009440031F90F2000F008F8FFF708FF00231846DC
:1009540080BD00BF003C024080B582B000AF78602B
:10096400124B1A68124B1B7819464FF47A73B3FB77
:10097400F1F3B2FBF3F3184600F03BF90346002B06
:1009840001D001230EE07B680F2B0AD8002279687E
:100994004FF0FF3000F011F9064A7B681360002322
:1009A40000E0012318460837BD4680BD0000002042
:1009B400080000200400002080B400AF064B1B7820
:1009C4001A46064B1B681344044A136000BFBD4615
:1009D4005DF8047B704700BF0800002090000020F1
:1009E40080B400AF034B1B681846BD465DF8047B1A
:1009F400704700BF9000002080B584B000AF7860DD
:100A0400FFF7EEFFB8607B68FB60FB68B3F1FF3F64
:100A140005D00A4B1B781A46FB681344FB6000BFE1
:100A2400FFF7DEFF0246BB68D31AFA689A42F7D88A
:100A340000BF00BF1037BD4680BD00BF08000020C6
:100A440080B485B000AF78607B6803F00703FB6077
:100A54000C4BDB68BB60BA684FF6FF031340BB6006
:100A6400FB681A02BB68134343F0BF6343F40033CB
:100A7400BB60044ABB68D36000BF1437BD465DF851
:100A8400047B704700ED00E080B400AF044BDB68EA
:100A94001B0A03F007031846BD465DF8047B704744
:100AA40000ED00E080B483B000AF03463960FB7111
:100AB40097F90730002B0ADB3B68DAB20C4997F947
:100AC40007301201D2B20B4483F800230AE03B68DA
:100AD400DAB20849FB7903F00F03043B1201D2B2E6
:100AE4000B441A7600BF0C37BD465DF8047B704793
:100AF40000E100E000ED00E080B489B000AFF860F0
:100B0400B9607A60FB6803F00703FB61FB69C3F11A
:100B14000703042B28BF0423BB61FB690433062BA2
:100B240002D9FB69033B00E000237B614FF0FF32F5
:100B3400BB6902FA03F3DA43BB681A407B699A4043
:100B44004FF0FF317B6901FA03F3D9437B680B4013
:100B5400134318462437BD465DF8047B70470000F4
:100B640080B582B000AF78607B68013BB3F1807FD1
:100B740001D301230FE00A4A7B68013B53600F2134
:100B84004FF0FF30FFF78EFF054B00229A60044BB5
:100B940007221A60002318460837BD4680BD00BFEF
:100BA40010E000E080B582B000AF78607868FFF7AD
:100BB40047FF00BF0837BD4680BD80B586B000AF93
:100BC4000346B9607A60FB7300237B61FFF75CFF27
:100BD40078617A68B9687869FFF78EFF024697F9F9
:100BE4000F3011461846FFF75DFF00BF1837BD46AA
:100BF40080BD80B582B000AF78607868FFF7B0FF41
:100C0400034618460837BD4680BD000080B489B04D
:100C140000AF7860396000237B6100233B610023CF
:100C2400BB610023FB6165E10122FB6902FA03F366
:100C34007B613B681B687A6913403B613A697B6955
:100C44009A4240F054813B685B6803F00303012B34
:100C540005D03B685B6803F00303022B30D17B684B
:100C64009B68BB61FB695B00032202FA03F3DB436D
:100C7400BA691340BB613B68DA68FB695B0002FA3E
:100C840003F3BA691343BB617B68BA699A607B68F2
:100C94005B68BB610122FB6902FA03F3DB43BA69B7
:100CA4001340BB613B685B681B0903F00102FB69ED
:100CB40002FA03F3BA691343BB617B68BA695A60E9
:100CC4003B685B6803F00303032B17D07B68DB6886
:100CD400BB61FB695B00032202FA03F3DB43BA69DD
:100CE4001340BB613B689A68FB695B0002FA03F33B
:100CF400BA691343BB617B68BA69DA603B685B68B5
:100D040003F00303022B23D1FB69DA087B68083262
:100D140053F82230BB61FB6903F007039B000F22E9
:100D240002FA03F3DB43BA691340BB613B681A69F7
:100D3400FB6903F007039B0002FA03F3BA69134348
:100D4400BB61FB69DA087B680832B96943F8221091
:100D54007B681B68BB61FB695B00032202FA03F337
:100D6400DB43BA691340BB613B685B6803F0030271
:100D7400FB695B0002FA03F3BA691343BB617B6846
:100D8400BA691A603B685B6803F44033002B00F0D7
:100D9400AE800023FB605D4B5B6C5C4A43F4804394
:100DA40053645A4B5B6C03F48043FB60FB68584A02
:100DB400FB699B08023352F82330BB61FB6903F0E3
:100DC40003039B000F2202FA03F3DB43BA691340C7
:100DD400BB617B684F4A934225D07B684E4A93425D
:100DE4001FD07B684D4A934219D07B684C4A93428A
:100DF40013D07B684B4A93420DD07B684A4A934296
:100E040007D07B68494A934201D106230CE00723AB
:100E14000AE0052308E0042306E0032304E0022398
:100E240002E0012300E00023FA6902F003029200C9
:100E34009340BA691343BB613549FB699B0802338C
:100E4400BA6941F823203A4B9B68BB613B69DB4399
:100E5400BA691340BB613B685B6803F48013002BE1
:100E640003D0BA693B691343BB61314ABB699360E0
:100E74002F4BDB68BB613B69DB43BA691340BB6141
:100E84003B685B6803F40013002B03D0BA693B6929
:100E94001343BB61264ABB69D360254B5B68BB61C6
:100EA4003B69DB43BA691340BB613B685B6803F48D
:100EB4000033002B03D0BA693B691343BB611C4A5E
:100EC400BB6953601A4B1B68BB613B69DB43BA695E
:100ED4001340BB613B685B6803F48033002B03D091
:100EE400BA693B691343BB61114ABB691360FB696F
:100EF4000133FB61FB690F2B7FF696AE00BF00BF89
:100F04002437BD465DF8047B704700BF00380240BB
:100F14000038014000000240000402400008024082
:100F2400000C02400010024000140240001802406D
:100F3400003C014080B483B000AF78600B467B80F6
:100F440013467B707B78002B03D07A887B689A6188
:100F540003E07B881A047B689A6100BF0C37BD46A6
:100F64005DF8047B7047000080B584B000AF786002
:100F740039607B68002B01D10123CCE0684B1B68EE
:100F840003F00F033A689A420CD9654B3A68D2B21F
:100F94001A70634B1B6803F00F033A689A4201D03E
:100FA4000123B8E07B681B6803F00203002B20D008
:100FB4007B681B6803F00403002B05D0594B9B6826
:100FC400584A43F4E05393607B681B6803F00803BA
:100FD400002B05D0534B9B68524A43F46043936003
:100FE400504B9B6823F0F0027B689B684D49134388
:100FF4008B607B681B6803F00103002B44D07B6883
:101004005B68012B07D1474B1B6803F40033002BAB
:1010140019D101237FE07B685B68022B03D07B68D6
:101024005B68032B07D13F4B1B6803F00073002B55
:1010340009D101236FE03B4B1B6803F00203002B33
:1010440001D1012367E0374B9B6823F003027B68DF
:101054005B68344913438B60FFF7C2FCF8600AE015
:10106400FFF7BEFC0246FB68D31A41F28832934272
:1010740001D903234FE02B4B9B6803F00C027B68E0
:101084005B689B009A42EBD1254B1B6803F00F036E
:101094003A689A420CD2224B3A68D2B21A70204B68
:1010A4001B6803F00F033A689A4201D0012332E02F
:1010B4007B681B6803F00403002B08D0194B9B6862
:1010C40023F4E0527B68DB68164913438B607B682A
:1010D4001B6803F00803002B09D0124B9B6823F410
:1010E40060427B681B69DB000E4913438B6000F090
:1010F40021F802460B4B9B681B0903F00F030A49B6
:10110400CB5C22FA03F3094A1360094B1B681846A7
:10111400FFF722FC002318461037BD4680BD00BFF0
:10112400003C0240003802408C24000800000020EB
:10113400040000202DE9B04FAEB000AF0023C7F883
:10114400AC300023C7F8B4300023C7F8A83000231C
:10115400C7F8A4300023C7F8B030CB4B9B6803F02A
:101164000C030C2B00F2068201A252F823F000BFFC
:10117400A9110008791500087915000879150008E7
:10118400B1110008791500087915000879150008CF
:10119400B9110008791500087915000879150008B7
:1011A400A9130008B94BC7F8B030E7E1B84BC7F84A
:1011B400B030E3E1B44B5B6803F03F03C7F8AC30F5
:1011C400B14B5B6803F48003002B71D0AE4B5B68BA
:1011D4009B090022C7F89830C7F89C20D7F89830AC
:1011E400C3F30803C7F890300023C7F89430D7E955
:1011F400244522462B464FF000004FF000015901D0
:1012040041EAD261500102460B462146511A396423
:10121400294663EB01037B644FF000024FF00003A7
:10122400D7E9108949468B01414643EA9163414617
:101234008A014146511AB963494663EB0103FB63D2
:101244004FF000024FF00003D7E90E894946CB0066
:10125400414643EA51734146CA00104619460346C3
:1012640022469B183B632B460A4642EB03037B63EF
:101274004FF000024FF00003D7E90C4529464B021A
:10128400214643EAD15321464A0210461946D7F86B
:10129400AC300022C7F88830C7F88C20D7E9222365
:1012A400FEF7AEFF02460B461346C7F8B43067E0BC
:1012B400754B5B689B090022C7F88030C7F884200F
:1012C400D7F88030C3F30803BB670023FB67D7E973
:1012D4001E4522462B464FF000004FF000015901F5
:1012E40041EAD261500102460B462146511AB962C5
:1012F400294663EB0103FB624FF000024FF0000349
:10130400D7E90A8949468B01414643EA916341463C
:101314008A014146B2EB010A494663EB010B4FF0E7
:1013240000024FF000034FEACB0343EA5A734FEA3B
:10133400CA0292469B4623461AEB03033B622B46A2
:101344004BEB03037B624FF000024FF00003D7E93D
:10135400084529468B02214643EA915321468A02D5
:1013640010461946D7F8AC3000223B677A67D7E9B4
:101374001C23FEF745FF02460B461346C7F8B4305C
:10138400414B5B681B0C03F0030301335B00C7F89C
:10139400A830D7F8B420D7F8A830B2FBF3F3C7F8D5
:1013A400B030EBE0384B5B6803F03F03C7F8AC3078
:1013B400354B5B6803F48003002B6BD0324B5B68C6
:1013C4009B090022BB66FA66BB6EC3F308033B6647
:1013D40000237B66D7E9184522462B464FF00000D0
:1013E4004FF00001590141EAD261500102460B4617
:1013F4002146511AB961294663EB0103FB614FF0A1
:1014040000024FF00003D7E906AB59468B01514661
:1014140043EA916351468A015146B2EB01085946A9
:1014240063EB01094FF000024FF000034FEAC903D8
:1014340043EA58734FEAC80290469946234618EB8C
:1014440003033B612B4649EB03037B614FF000022E
:101454004FF00003D7E9044529464B02214643EAED
:10146400D15321464A0210461946D7F8AC3000221F
:10147400BB65FA65D7E91623FEF7C2FE02460B46A2
:101484001346C7F8B43065E0003802400024F40085
:1014940000127A003D4B5B689B09002218461146F6
:1014A400C0F308033B6500237B65D7E914894246F2
:1014B4004B464FF000004FF00001590141EAD26160
:1014C400500102460B464146511AB960494663EB46
:1014D4000103FB604FF000024FF00003D7E902ABB9
:1014E40059468B01514643EA916351468A0151465C
:1014F400541A594663EB01054FF000024FF0000304
:10150400EB0043EA5473E20014461D464346E318D5
:101514003B604B4645EB03037B604FF000024FF00A
:101524000003D7E9004529468B02214643EA91533B
:1015340021468A0210461946D7F8AC300022BB6413
:10154400FA64D7E91223FEF75BFE02460B46134604
:10155400C7F8B4300D4B5B681B0F03F00703C7F8E3
:10156400A430D7F8B420D7F8A430B2FBF3F3C7F80B
:10157400B03003E0064BC7F8B03000BFD7F8B03046
:101584001846B837BD46BDE8B08F00BF00380240EA
:101594000024F40080B586B000AF78607B68002B2F
:1015A40001D101238DE27B681B6803F00103002B4A
:1015B40000F08380944B9B6803F00C03042B19D038
:1015C400914B9B6803F00C03082B06D18E4B5B6890
:1015D40003F48003B3F5800F0CD08B4B9B6803F0AE
:1015E4000C030C2B12D1884B5B6803F48003B3F516
:1015F400800F0BD1844B1B6803F40033002B5BD0AA
:101604007B685B68002B57D101235AE27B685B68D7
:10161400B3F5803F06D17C4B1B687B4A43F480338F
:1016240013601DE07B685B68B3F5A02F0CD1764B8B
:101634001B68754A43F480231360734B1B68724A1A
:1016440043F4803313600BE06F4B1B686E4A23F442
:10165400803313606C4B1B686B4A23F48023136044
:101664007B685B68002B13D0FFF7BAF9386108E098
:10167400FFF7B6F902463B69D31A642B01D9032359
:101684001FE2614B1B6803F40033002BF0D014E01D
:10169400FFF7A6F9386108E0FFF7A2F902463B69B3
:1016A400D31A642B01D903230BE2574B1B6803F4B1
:1016B4000033002BF0D100E000BF7B681B6803F00F
:1016C4000203002B6FD0504B9B6803F00C03002BDC
:1016D40017D04D4B9B6803F00C03082B05D14A4BE4
:1016E4005B6803F48003002B0BD0474B9B6803F02B
:1016F4000C030C2B1CD1444B5B6803F48003002BBC
:1017040016D1414B1B6803F00203002B05D07B6804
:10171400DB68012B01D00123D3E13B4B1B6823F091
:10172400F8027B681B69DB00374913430B603AE01E
:101734007B68DB68002B20D0344B01221A60FFF752
:101744004FF9386108E0FFF74BF902463B69D31AB9
:10175400022B01D90323B4E12B4B1B6803F00203D2
:10176400002BF0D0284B1B6823F0F8027B681B6920
:10177400DB00254913430B6015E0244B00221A605B
:10178400FFF72EF9386108E0FFF72AF902463B69B2
:10179400D31A022B01D9032393E11B4B1B6803F0DB
:1017A4000203002BF0D17B681B6803F00803002BB5
:1017B40036D07B685B69002B16D0154B01221A606A
:1017C400FFF70EF9386108E0FFF70AF902463B69B2
:1017D400D31A022B01D9032373E10B4B5B6F03F084
:1017E4000203002BF0D01BE0094B00221A60FFF724
:1017F400F7F838610EE0FFF7F3F802463B69D31AB5
:10180400022B07D903235CE1003802400000474261
:10181400800E47428A4B5B6F03F00203002BEAD130
:101824007B681B6803F00403002B00F097800023FF
:10183400FB75834B1B6C03F08053002B0FD10023EB
:10184400BB607F4B1B6C7E4A43F0805313647C4B1C
:101854001B6C03F08053BB60BB680123FB75794BA1
:101864001B6803F48073002B18D1764B1B68754AF0
:1018740043F480731360FFF7B3F8386108E0FFF7AF
:10188400AFF802463B69D31A022B01D9032318E1AE
:101894006C4B1B6803F48073002BF0D07B689B684F
:1018A400012B06D1664B1B6F654A43F00103136796
:1018B4001CE07B689B68052B0CD1614B1B6F604A55
:1018C40043F0040313675E4B1B6F5D4A43F001034F
:1018D40013670BE05A4B1B6F594A23F0010313673C
:1018E400574B1B6F564A23F0040313677B689B68AE
:1018F400002B15D0FFF774F838610AE0FFF770F891
:1019040002463B69D31A41F28832934201D9032338
:10191400D7E04B4B1B6F03F00203002BEED014E017
:10192400FFF75EF838610AE0FFF75AF802463B69B0
:10193400D31A41F28832934201D90323C1E0404BC8
:101944001B6F03F00203002BEED1FB7D012B05D1AD
:101954003B4B1B6C3A4A23F0805313647B689B69AE
:10196400002B00F0AD80364B9B6803F00C03082B72
:1019740060D07B689B69022B45D1334B00221A60EF
:10198400FFF72EF8386108E0FFF72AF802463B69B2
:10199400D31A022B01D9032393E0294B1B6803F0CC
:1019A4000073002BF0D17B68DA697B681B6A1A43E9
:1019B4007B685B6A9B011A437B689B6A5B08013BFB
:1019C4001B041A437B68DB6A1B061A437B681B6B88
:1019D4001B071B4913434B601B4B01221A60FEF784
:1019E400FFFF386108E0FEF7FBFF02463B69D31AAC
:1019F400022B01D9032364E0114B1B6803F000732D
:101A0400002BF0D05CE0104B00221A60FEF7E8FFD8
:101A1400386108E0FEF7E4FF02463B69D31A022B63
:101A240001D903234DE0064B1B6803F00073002B20
:101A3400F0D145E07B689B69012B07D1012340E08D
:101A44000038024000700040600047421F4B5B6852
:101A5400FB607B689B69012B30D0FB6803F4800238
:101A64007B68DB699A4229D1FB6803F03F027B68FB
:101A74001B6A9A4222D1FA6847F6C07313407A6807
:101A8400526A9201934219D1FB6803F440327B6895
:101A94009B6A5B08013B1B049A420FD1FB6803F06D
:101AA40070627B68DB6A1B069A4207D1FB6803F00D
:101AB400E0427B681B6B1B079A4201D0012300E0C4
:101AC400002318461837BD4680BD00BF00380240C9
:101AD40080B582B000AF78607B68002B01D1012310
:101AE4007BE07B685B6A002B08D17B685B68B3F59D
:101AF400827F09D07B680022DA6105E07B680022DE
:101B04001A617B6800225A617B6800229A627B68B2
:101B140093F85130DBB2002B06D17B68002283F8A6
:101B240050207868FEF742FE7B68022283F8512039
:101B34007B681B681A687B681B6822F040021A6085
:101B44007B685B6803F482727B689B6803F40443DC
:101B54001A437B68DB6803F400631A437B681B69E0
:101B640003F002031A437B685B6903F001031A4321
:101B74007B689B6903F400731A437B68DB6903F099
:101B840038031A437B681B6A03F0800342EA0301AB
:101B94007B689B6A03F400527B681B680A431A60E3
:101BA4007B689B691B0C03F004017B685B6A03F090
:101BB40010027B681B680A435A607B681B68DA69F9
:101BC4007B681B6822F40062DA617B6800225A6534
:101BD4007B68012283F85120002318460837BD464C
:101BE40080BD80B588B002AFF860B9603B60134631
:101BF400FB80FB6893F85130DBB2012B01D0022348
:101C040004E1BB68002B02D0FB88002B01D1012327
:101C1400FCE0FB685B68B3F5827F12D1FB689B68CC
:101C2400002B0ED1FB68042283F85120FA883B680C
:101C340000931346BA68B968F86800F0EBF80346F5
:101C4400E4E0FEF7CDFE7861FB6893F85030012B99
:101C540001D10223DAE0FB68012283F85020FB68FB
:101C6400042283F85120FB6800225A65FB68BA6895
:101C74009A63FB68FA889A87FB68FA88DA87FB68B4
:101C840000221A63FB6800229A86FB680022DA8627
:101C9400FB6800221A64FB6800225A64FB689B6894
:101CA400B3F5004F0FD1FB681B681A68FB681B680B
:101CB40022F040021A60FB681B681A68FB681B6804
:101CC40022F480421A60FB681B681B6803F040031F
:101CD400402B07D0FB681B681A68FB681B6842F03E
:101CE40040021A60FB68DB68002B70D135E0FB68AA
:101CF4001B689B6803F00103012B15D1FB681B686B
:101D040003F10C02FB689B6B1278D2B21A70FB6869
:101D14009B6B5A1CFB689A63FB68DB8F9BB2013B8D
:101D24009AB2FB68DA8718E0FEF75AFE02467B692E
:101D3400D31A3A689A4203D83B68B3F1FF3F02D101
:101D44003B68002B09D1FB68012283F85120FB6812
:101D5400002283F85020032358E0FB68DB8F9BB2FA
:101D6400002BC4D138E0FB681B689B6803F00103B7
:101D7400012B13D1FB681B68DA68FB689B6B92B27A
:101D84001A80FB689B6B9A1CFB689A63FB68DB8F69
:101D94009BB2013B9AB2FB68DA8718E0FEF720FE9B
:101DA40002467B69D31A3A689A4203D83B68B3F176
:101DB400FF3F02D13B68002B09D1FB68012283F865
:101DC4005120FB68002283F8502003231EE0FB68A7
:101DD400DB8F9BB2002BC6D17A693968F86800F0B2
:101DE4004BFA0346002B02D0FB6820225A65FB689D
:101DF400012283F85120FB68002283F85020FB68FD
:101E04005B6D002B01D0012300E000231846183736
:101E1400BD4680BD80B58AB000AFF860B9607A6015
:101E24007B8001237B62FEF7DBFD3862FB6893F85D
:101E34005130FB77FB685B68BB617B88FB82FB7F6F
:101E4400012B0CD0BB69B3F5827F06D1FB689B687C
:101E5400002B02D1FB7F042B01D002237FE1BB685E
:101E6400002B05D07B68002B02D07B88002B01D18E
:101E7400012374E1FB6893F85030012B01D1022354
:101E84006DE1FB68012283F85020FB6893F8513020
:101E9400DBB2042B03D0FB68052283F85120FB68D6
:101EA40000225A65FB687A689A63FB687A88DA8745
:101EB400FB687A889A87FB68BA681A63FB687A8831
:101EC400DA86FB687A889A86FB6800221A64FB68C3
:101ED40000225A64FB681B681B6803F04003402B14
:101EE40007D0FB681B681A68FB681B6842F0400255
:101EF4001A60FB68DB68B3F5006F7ED1FB685B6832
:101F0400002B02D0FB8A012B6CD1FB681B6B1A8857
:101F1400FB681B68DA60FB681B6B9A1CFB681A631E
:101F2400FB68DB8E9BB2013B9AB2FB68DA8659E010
:101F3400FB681B689B6803F00203022B1BD1FB6840
:101F4400DB8E9BB2002B16D07B6A012B13D1FB686E
:101F54001B6B1A88FB681B68DA60FB681B6B9A1C96
:101F6400FB681A63FB68DB8E9BB2013B9AB2FB6889
:101F7400DA8600237B62FB681B689B6803F001031D
:101F8400012B19D1FB68DB8F9BB2002B14D0FB68AB
:101F94001B68DA68FB689B6B92B21A80FB689B6BC8
:101FA4009A1CFB689A63FB68DB8F9BB2013B9AB275
:101FB400FB68DA8701237B62FEF712FD02463B6A67
:101FC400D31A3A6B9A420DD83B6BB3F1FF3F09D059
:101FD400FB68012283F85120FB68002283F850201B
:101FE4000323BCE0FB68DB8E9BB2002BA0D1FB6813
:101FF400DB8F9BB2002B9BD182E0FB685B68002BDC
:1020040002D0FB8A012B71D1FB681A6BFB681B6839
:102014000C3312781A70FB681B6B5A1CFB681A632A
:10202400FB68DB8E9BB2013B9AB2FB68DA865DE00B
:10203400FB681B689B6803F00203022B1CD1FB683E
:10204400DB8E9BB2002B17D07B6A012B14D1FB686B
:102054001A6BFB681B680C3312781A70FB681B6BD5
:102064005A1CFB681A63FB68DB8E9BB2013B9AB275
:10207400FB68DA8600237B62FB681B689B6803F0BD
:102084000103012B19D1FB68DB8F9BB2002B14D009
:10209400FB681B68DA68FB689B6BD2B21A70FB683A
:1020A4009B6B5A1CFB689A63FB68DB8F9BB2013BFA
:1020B4009AB2FB68DA8701237B62FEF791FC024641
:1020C4003B6AD31A3A6B9A4203D83B6BB3F1FF3F96
:1020D40002D13B6B002B09D1FB68012283F851200C
:1020E400FB68002283F85020032338E0FB68DB8E72
:1020F4009BB2002B9CD1FB68DB8F9BB2002B97D14A
:102104003A6A396BF86800F01DF90346002B08D0D1
:10211400FB6820225A65FB68002283F850200123C3
:102124001DE0FB689B68002B0AD100233B61FB6820
:102134001B68DB683B61FB681B689B683B613B6910
:10214400FB68012283F85120FB68002283F85020A9
:10215400FB685B6D002B01D0012300E000231846CF
:102164002837BD4680BD000080B588B000AFF86058
:10217400B9603B601346FB71FEF732FC0246BB6A52
:102184009B1A3A681344FB61FEF72AFCB861394B89
:102194001B685B011B0DFA6902FB03F37B6155E0CD
:1021A4003B68B3F1FF3F51D0FEF71AFC0246BB690E
:1021B400D31AFA699A4202D9FB69002B3DD1FB6814
:1021C4001B685A68FB681B6822F0E0025A60FB68CF
:1021D4005B68B3F5827F11D1FB689B68B3F5004F50
:1021E40004D0FB689B68B3F5806F07D1FB681B685C
:1021F4001A68FB681B6822F040021A60FB689B6A3D
:10220400B3F5005F0FD1FB681B681A68FB681B6895
:1022140022F400521A60FB681B681A68FB681B688A
:1022240042F400521A60FB68012283F85120FB68D3
:10223400002283F85020032318E07B69002B02D18D
:102244000023FB6102E07B69013B7B61FB681B6847
:102254009A68BB681340BA689A420CBF01230023F2
:10226400DBB21A46FB799A429AD1002318462037EA
:10227400BD4680BD0000002080B586B002AFF86086
:10228400B9607A60FB685B68B3F5827F11D1FB6843
:102294009B68B3F5004F04D0FB689B68B3F5806F6F
:1022A40007D1FB681B681A68FB681B6822F04002B0
:1022B4001A60FB685B68B3F5827F2AD1FB689B6870
:1022C400B3F5806F12D07B680093BB680022802135
:1022D400F868FFF749FF0346002B2DD0FB685B6DC0
:1022E40043F02002FB685A65032326E07B680093D1
:1022F400BB6800220121F868FFF736FF0346002B74
:102304001AD0FB685B6D43F02002FB685A65032317
:1023140013E07B680093BB6800220121F868FFF793
:1023240023FF0346002B07D0FB685B6D43F02002BC
:10233400FB685A65032300E0002318461037BD46A6
:1023440080BD000080B588B002AFF860B9607A60E3
:102354007B680093BB6801220221F868FFF704FF41
:102364000346002B07D0FB685B6D43F02002FB683B
:102374005A65032332E01B4B1B681B4AA2FB032351
:102384005B0D4FF47A7202FB03F37B61FB685B68BD
:10239400B3F5827F12D17B680093BB680022802151
:1023A400F868FFF7E1FE0346002B16D0FB685B6D6F
:1023B40043F02002FB685A6503230FE07B69002B7E
:1023C4000AD07B69013B7B61FB681B689B6803F057
:1023D4008003802BF2D000E000BF0023184618379A
:1023E400BD4680BD00000020819F5E1610B50139F6
:1023F4000244904201D1002005E0037811F8014F16
:10240400A34201D0181B10BD0130F2E70244034679
:10241400934200D1704703F8011BF9E770B50D4DE5
:102424000D4C641BA4100026A64209D10B4D0C4C84
:1024340000F018F8641BA4100026A64205D170BD54
:1024440055F8043B98470136EEE755F8043B9847A6
:102454000136F2E7A4240008A4240008A4240008F8
:10246400A8240008F8B500BFF8BC08BC9E46704715
:0C247400F8B500BFF8BC08BC9E467047DD
:1024800048656C6C6F20776F726C64000000000010
:0C24900000000000010203040607080918
:08249C0098DDFF7F0100000044
:0424A400E901000842
:0424A800C501000862
:0C24AC000024F4001000000001000000FB
:04000005080008C522
:00000001FF
