:020000040800F2
:100000000000022001070008D9060008DB060008EE
:10001000DD060008DF060008E10600080000000019
:10002000000000000000000000000000E3060008DF
:10003000E506000800000000E7060008E9060008E1
:100040005107000851070008510700085107000830
:100050005107000851070008510700085107000820
:100060005107000851070008510700085107000810
:100070005107000851070008510700085107000800
:1000800051070008510700085107000851070008F0
:1000900051070008510700085107000851070008E0
:1000A00051070008510700085107000851070008D0
:1000B00051070008510700085107000851070008C0
:1000C00051070008510700085107000851070008B0
:1000D00051070008510700085107000851070008A0
:1000E0005107000851070008510700085107000890
:1000F0005107000851070008510700085107000880
:10010000510700085107000851070008510700086F
:10011000510700085107000851070008510700085F
:10012000510700085107000851070008510700084F
:1001300051070008000000000000000051070008FF
:10014000510700085107000851070008510700082F
:10015000510700085107000851070008510700081F
:10016000510700085107000851070008510700080F
:10017000510700085107000851070008000000005F
:10018000000000005107000800000000000000000F
:10019000510700080000000000000000510700089F
:1001A00000000000000000000000000051070008EF
:1001B00051070008510700085107000851070008BF
:0401C00051070008DB
:1001C40010B5054C237833B9044B13B10448AFF38D
:1001D40000800123237010BD0C00002000000000EB
:1001E400AC15000808B5034B1BB103490348AFF332
:1001F400008008BD0000000010000020AC150008BD
:1002040053B94AB9002908BF00281CBF4FF0FF3179
:100214004FF0FF3000F088B9ADF1080C6DE904CE61
:1002240000F006F8DDF804E0DDE9022304B07047CD
:100234002DE9F047089D8E4604468846002B4AD196
:100244008A42174662D9B2FA82F64EB1C6F1200349
:1002540001FA06F820FA03F3B74043EA0808B44069
:100264004FEA174E1FFA87FCB8FBFEF1230C0EFB76
:10027400118843EA084301FB0CF29A4209D9FB189E
:1002840001F1FF3080F0EA809A4240F2E7800239BF
:100294003B449A1AA3B2B2FBFEF00EFB102243EACF
:1002A400024300FB0CFC9C4509D9FB1800F1FF320A
:1002B40080F0D6809C4540F2D3803B44023840EA2B
:1002C4000140A3EB0C0300211DB1F3400022C5E95A
:1002D4000032BDE8F0878B4205D90DB1C5E90001B4
:1002E40000210846F5E7B3FA83F1002946D17345A6
:1002F40002D3824200F20581841A6EEB03020120CC
:100304009046002DE5D0C5E90048E2E7002A00F058
:100314009080B2FA82F6002E40F0A4808A1A030C70
:100324004FEA174E80B2BCB20121B2FBFEFC0EFBB9
:100334001C2243EA024304FB0CF29A4207D9FB183D
:100344000CF1FF3802D29A4200F2E080C4469B1AB4
:10035400B3FBFEF20EFB123340EA034302FB04F448
:100364009C4207D9FB1802F1FF3002D29C4200F2F2
:10037400CA8002461B1B42EA0C40A5E7C1F12006D5
:100384008B4022FA06F71F430EFA01F420FA06F313
:100394002EFA06FE4FEA1749234300FA01F81FFA22
:1003A40087FCBEFBF9F01C0C09FB10EE44EA0E447A
:1003B40000FB0CFEA64502FA01F209D93C1900F132
:1003C400FF3A80F09C80A64540F2998002383C4474
:1003D400A4EB0E041FFA83FEB4FBF9F309FB1344E8
:1003E4004EEA044403FB0CFCA44508D93C1903F170
:1003F400FF3E80F08280A4457FD9023B3C4443EA1F
:100404000040A4EB0C04A0FB02EC64457346E146F7
:1004140062D35FD05DB1B8EB030264EB090404FA64
:1004240006F622FA01F31E43CC40C5E9006400211C
:100434004FE7B1FBF2FC010C41EA0E4180B240EA05
:1004440001423B4638463C46B846BE462026B1FBF0
:10045400F7F1A2EB080241EA0C4166E7014618E70E
:1004640010462CE7C6F120022EFA02F3B740B14041
:1004740020FA02F24FEA174E0A43B3FBFEF8BCB26D
:100484000EFB1833110C41EA034108FB04F9B04098
:1004940089454FEA104380B23ED9791808F1FF3CF0
:1004A40001D289451FD8A1EB0901B1FBFEF909FB73
:1004B40004F80EFB191192B242EA0142424529D2D4
:1004C400BA1809F1FF31C4D24245C2D2A9F10201DE
:1004D4003A44BEE7F0459DD2BEEB02036CEB070C39
:1004E4000138E14696E7A7EB09094944A8F1020C53
:1004F400B1FBFEF909FB04F8DBE773467FE75046DE
:1005040066E70846FDE63B44023A33E7ACF1020CE9
:100514003B441CE749469CE7A1EB0901C446B1FBF7
:10052400FEF909FB04F8C4E7704700BF00B595B0B5
:100534003022002108A801F00AF81422002102A8A0
:1005440001F005F800221A4B0092196C41F0805119
:1005540019641B6C174903F080530093009B0192AC
:100564000B6823F4404343F480430B600B680D9203
:1005740003F440430193019B0223079301201023BA
:10058400CDE90A0307A800F053FB014608B172B68F
:10059400FEE70F23CDE90230CDE90400069002A85E
:1005A40000F064FA08B172B6FEE715B05DF804FB1A
:1005B400003802400070004007B500F0EDF8FFF786
:1005C400B5FF0023164A0193116B164C41F001014B
:1005D4001163126BA36202F001020192019A124AA2
:1005E400C4E90233C4E90023C4E90433C4E9083389
:1005F4004FF400720A232046A261E36200F0ACFDCE
:1006040058B90A4D4FF47A7301222946204600F066
:10061400FBFE642000F0ECF8F4E772B6FEE700BFDE
:10062400003802402C000020003001402800002047
:1006340082B00C4B002100915A6C42F480425A64FF
:100644005A6C02F480420092009A01911A6C42F0B2
:1006540080521A641B6C03F080530193019B02B017
:10066400704700BF0038024010B5044688B0142219
:10067400002103A800F06BFF2268144B9A4222D198
:1006840003F58433002101915A6C114842F48052DD
:100694005A645A6C02F480520192019A02911A6BC4
:1006A40042F001021A631B6B03F001030293029BE5
:1006B400E02202230321CDE903230523CDE9061318
:1006C40003A900F001F908B010BD00BF00300140DB
:1006D40000000240FEE7FEE7FEE7FEE7FEE77047A4
:1006E4007047704700F072B8034AD2F8883043F478
:1006F4007003C2F88830704700ED00E0DFF834D0B2
:10070400FFF7F2FF0C480D490D4A002302E0D458CC
:10071400C4500433C4188C42F9D30A4A0A4C002347
:1007240001E013600432A242FBD300F019FFFFF78B
:1007340043FF704700000220000000200C0000204E
:10074400E41500080C00002088000020FEE70000EB
:1007540038B50E4B1A784FF47A73B3FBF2F30C4AA4
:1007640005461068B0FBF3F000F09AF8044658B957
:100774000F2D09D8024629464FF0FF3000F05EF8ED
:10078400044B20461D6038BD0120FCE70400002016
:10079400000000200800002008B50B4B1A6842F442
:1007A40000721A601A6842F480621A601A6842F48D
:1007B40080721A60032000F02FF80F20FFF7C8FFA3
:1007C400FFF736FF002008BD003C0240034A044BFB
:1007D40011681B780B441360704700BF840000202D
:1007E40004000020014B1868704700BF84000020FB
:1007F40038B50446FFF7F6FF631C1CBF054B1B7896
:10080400054618BFE418FFF7EDFF431BA342FAD3D4
:1008140038BD00BF040000200749CA6822F4E06222
:100824000302120403F4E063120C134343F0BF63A6
:1008340043F40033CB60704700ED00E0164B30B555
:10084400DC68C4F30224C4F10703251D042B28BF6C
:100854000423062D4FF0FF358CBF033C002405FA1A
:1008640003F321EA0303A54022EA0502A34000287A
:1008740043EA0203ACBF00F16040084A4FEA0313A5
:10088400B8BF00F00F00DBB2AABF00F561401354FB
:1008940080F8003330BD00BF00ED00E014ED00E04F
:1008A4000138B0F1807F0BD24FF0E023054A586144
:1008B400F02182F823100020072298611A61704702
:1008C4000120704700ED00E02DE9F74FDFF8989123
:1008D400634A00230D6801249C4004EA0506AC43E6
:1008E40040F0AB804D68032705F003044FEA43084A
:1008F40007FA08FC671E012F6FEA0C0C34D88768CE
:1009040007EA0C0ECF6807FA08F747EA0E07876074
:10091400476827EA060EC5F300179F4047EA0E070B
:100924004760C76807EA0C0E8F6807FA08F747EABA
:100934000E07022CC76019D14FEAD30A00EB8A0ACA
:1009440003F0070BDAF820704FEA8B0B4FF00F0E11
:100954000EFA0BFE27EA0E0E0F6907FA0BF747EAA9
:100964000E07CAF8207001E0032CDAD1076804FAF4
:1009740008F407EA0C073C4315F4403F04605CD0DC
:1009840000240194D9F8444044F48044C9F8444014
:10099400D9F8444023F0030707F1804704F4804466
:1009A40007F59C37019403F0030C019CD7F808E089
:1009B4004FEA8C0C0F2404FA0CF42EEA040E294C92
:1009C400A04241D004F58064A0423FD004F5806485
:1009D400A0423DD004F58064A0423BD004F580647D
:1009E400A04239D004F58064A04237D004F5806475
:1009F400A04214BF0724062404FA0CF444EA0E04AB
:100A0400BC609468F74315F4801F0CBF3C4034432A
:100A14009460D46815F4001F0CBF3C403443D46088
:100A2400546815F4003F0CBF3C40344354601468D0
:100A3400ED0354BF3C40344314600133102B7FF466
:100A440049AF03B0BDE8F08F0024D5E70124D3E714
:100A54000224D1E70324CFE70424CDE70524CBE720
:100A6400003C014000000240003802402DE9F04102
:100A74000D46044610B90120BDE8F081434B1A68C5
:100A840002F00F028A4228D321688F072DD4C807A9
:100A940040D43E4B1A6802F00F02AA4265D822687D
:100AA40051076BD4130707D5394A2169936823F496
:100AB400604343EAC103936000F072F8344B354A53
:100AC4009B68C3F30313D35CD840334B1860334B98
:100AD4001868FFF73DFE0020CEE7CAB21A701B6803
:100AE40003F00F038B42C6D1CEE7294B11F0040F5C
:100AF4001EBF9A6842F4E0529A600E0742BF9A6899
:100B040042F460429A609A68A06822F0F0020243BC
:100B14009A60BCE762681E4B012A1CD11B6813F45F
:100B2400003FA8D01A4EB36823F003031343B36005
:100B3400FFF758FE41F288380746B368626803F04D
:100B44000C03B3EB820FA4D0FFF74CFEC01B40454F
:100B5400F3D9032090E7911E01291B6802D813F0F2
:100B6400007FDEE713F0020FDBE7EAB21A701B68BE
:100B740003F00F03AB427FF47EAF90E70449E068D3
:100B84008B6823F4E05303438B608BE7003C024003
:100B940000380240C41500080000002008000020AE
:100BA400204908B58B6803F00C03082B07D00C2BE5
:100BB40020D01D481D4A042B18BF104608BD4A68A2
:100BC4004B68496813F4800314BF17481748C1F3EE
:100BD400881118BF002302F03F02A1FB0001FFF7B8
:100BE4000FFB104B5B68C3F3014301335B00B0FBA5
:100BF400F3F0E3E74A684B68496813F4800314BFD1
:100C040009480A48C1F3881118BF002302F03F02C3
:100C1400A1FB0001FFF7F4FA024B5B68C3F3027314
:100C2400E5E700BF0038024040787D010024F4006D
:100C34002DE9F3410446002831D00368DF0710D4BE
:100C440023689E0767D42368190700F1B2802368DC
:100C54005A0700F1D280A369002B40F039810020AB
:100C640034E0984B9A6802F00C02042A10D09A6877
:100C740002F00C02082A02D15B685D0208D4914B91
:100C84009A6802F00C020C2A0BD15A68510208D55A
:100C94008C4B1B689A03D3D56368002BD0D10120F9
:100CA40014E06268B2F5803F13D11A6842F48032CE
:100CB4001A60FFF797FD834E054633689B03BFD444
:100CC400FFF790FD401B6428F7D9032002B0BDE86C
:100CD400F0817C4DB2F5A02F2B6807D143F480231B
:100CE4002B602B6843F480332B60E2E723F48033DA
:100CF4002B602B6823F480232B60002AD9D1FFF7C3
:100D040071FD06462B689F039AD5FFF76BFD801B88
:100D14006428F7D9D9E76B4B9A6812F00C0F10D0FE
:100D24009A6802F00C02082A02D15B685E0208D5B8
:100D3400644A936803F00C030C2B11D153685D02D1
:100D44000ED4604A1368990702D5E368012BA6D133
:100D54001368216923F0F80343EAC103136072E7BF
:100D6400E268594BB2B101221A60FFF73BFD554DC1
:100D740006462B689B0707D52B68226923F0F803E6
:100D840043EAC2032B605EE7FFF72CFD801B0228B9
:100D9400EFD99AE71A60FFF725FD4A4E05463368F6
:100DA4009F077FF550AFFFF71DFD401B0228F6D9C2
:100DB4008BE76269444B82B10122C3F8802EFFF7AE
:100DC40011FD404E0546736F9B073FF540AFFFF79B
:100DD40009FD401B0228F6D977E7C3F8802EFFF7F8
:100DE40001FD384E0546736F9F077FF530AFFFF75F
:100DF400F9FC401B0228F6D967E7324B1A6C12F053
:100E0400805228D101921A6C42F080521A641B6CF1
:100E140003F080530193019B01272C4D2B68D805C7
:100E24001BD5A368274D012B27D12B6F43F001035A
:100E34002B67FFF7D7FC234E054641F28838336F02
:100E44009A0739D5002F3FF406AF1E4A136C23F0DE
:100E540080531364FFE60027DFE72B6843F48073B5
:100E64002B60FFF7BFFC06462B68D905D9D4FFF7E2
:100E7400B9FC801B0228F7D927E7052B04D12B6F77
:100E840043F004032B67D0E72A6F22F001022A679C
:100E94002A6F22F004022A67002BCAD1FFF7A2FCB2
:100EA40041F2883806462B6F9B07CBD5FFF79AFC97
:100EB400801B4045F7D908E7FFF794FC401B4045E9
:100EC400BDD902E7003802400000474200700040EC
:100ED4003C4DAA6802F00C02082A41D0022B3A4B7E
:100EE4004FF000021A662ED1FFF77CFC06462B68F1
:100EF400990122D4D4E907321343626A43EA821384
:100F0400E26A43EA0263226B43EA0273A26A52086A
:100F1400013A43EA02436B602B4B2A4D01221A66C5
:100F2400FFF760FC04462B689A013FF598AEFFF783
:100F340059FC001B0228F6D9C7E6FFF753FC801BB7
:100F44000228D4D9C1E6FFF74DFC04462B689B0167
:100F54007FF585AEFFF746FC001B0228F6D9B4E600
:100F6400012B3FF49CAE6B68E26903F4800191426B
:100F74007FF495AE216A03F03F028A427FF48FAE7C
:100F8400616A47F6C0721A40B2EB811F7FF487AEE4
:100F9400A26A520803F44031013AB1EB024F7FF4E4
:100FA4007EAEE16A03F07062B2EB016F7FF477AE5C
:100FB400226B03F0E043B3EB027F14BF0120002057
:100FC40084E600BF00380240000047422DE9F347A1
:100FD4001F46894690460446FFF704FC0A9D3D449B
:100FE4002D1AFFF7FFFB264B1E68C6F3CB366E4364
:100FF400824601962268936839EA03030CBF0123F1
:101004000023434501D100202EE07B1CF3D0FFF7E1
:10101400E9FBA0EB0A00A84229D323685A6822F00E
:10102400E0025A606268B2F5827F0AD1A268B2F522
:10103400004F02D0B2F5806F03D11A6822F040024B
:101044001A60A26AB2F5005F07D11A6822F400524E
:101054001A601A6842F400521A60012384F851306D
:10106400002384F85030032002B0BDE8F087019BD0
:101074001BB1019B013B0193BCE71D46BAE700BFCE
:1010840000000020F0B585B00B4600920E461746CE
:10109400022101220446FFF799FF054628B1636D3A
:1010A40043F020036365032515E0124B1868124BC7
:1010B400B0FBF3F04FF47A73584363680390B3F5CD
:1010C400827F0BD1009733462A4680212046FFF7C2
:1010D4007DFF0028E3D1284605B0F0BD039B002B1B
:1010E400F9D0039B013B039323689B681B06F5D44B
:1010F400F1E700BF0000002000366E0137B50B4653
:101104004168B1F5827F044608D000920121002293
:10111400FFF75CFFD0B9002003B030BD8168B1F5A2
:10112400004F02D0B1F5806F07D125682868B1F56A
:10113400806F20F04000286004D0009280210022BB
:101144002046E5E7009201210022F9E7636D43F0B0
:10115400200363650320DFE710B50446002855D05B
:10116400436A002B4ED14268B2F5827F00D0C3613E
:101174000023A36294F8513003F0FF0223B984F8EA
:1011840050202046FFF770FA2168A068A269022364
:1011940084F851300B6823F040030B60636800F45B
:1011A400044003F482730343E06800F400600343E3
:1011B400206900F002000343606900F0010003436A
:1011C40002F400700343E06900F038000343206A2E
:1011D40000F080000343A06A00F4005003430B6056
:1011E400636A120C03F0100302F004021A434A600B
:1011F400CB6923F40063CB6100200123606584F88C
:10120400513010BD0023C0E90433B1E70120F8E7F1
:101214002DE9F74304460D4691461E46DDF8288025
:10122400FFF7E0FA94F851306268012B0746D9B20F
:101234000AD0B2F5827F40F0E580A368002B40F02D
:10124400E180042940F0DE80002D4BD0B9F1000F7D
:1012540048D0002E46D094F85030012B00F0D280B4
:10126400012384F8503094F85130C4F83890042B9A
:101274001CBF052384F8513000236365C4E910338F
:101284002368E687E6861968A687490658BF196861
:10129400256358BF41F04001A68658BF1960E16834
:1012A400B1F5006F55D10AB1012E07D135F8022BE3
:1012B400DA60E38E2563013B9BB2E3860125E38E6E
:1012C4009BB28BB9E38F9BB273B93A464146204631
:1012D400FFF7D8FE002800F08180202363650023F7
:1012E40084F85030012031E021688B689A070DD5CD
:1012F400E38E9BB253B145B1236B33F8022BCA6022
:101304002363E38E013B9BB2E38600258A6812F0D7
:1013140001020CD0E38F9BB24BB1A36BC96823F8D5
:10132400021BA363E38F013B9BB2E3871546FFF7E0
:1013340059FAC01B4045C2D3B8F1FF3FBFD00123C7
:1013440084F85130002384F85030032003B0BDE802
:10135400F0830AB1012E08D12A781A73236B013362
:101364002363E38E013B9BB2E38601252DE02268D3
:1013740093689B070ED5E38E9BB25BB14DB1236B93
:101384001B781373236B01332363E38E013B9BB2FE
:10139400E38600252268916811F001010DD0E38FE6
:1013A4009BB253B1A36BD2681A70A36B0133A363CE
:1013B400E38F013B9BB2E3870D46FFF713FAC01B93
:1013C400404502D3B8F1FF3FB9D1E38E9BB2002B65
:1013D400CDD1E38F9BB2002BC9D176E7A36833B993
:1013E40001932368DA6801929B680193019B0123AE
:1013F40084F85130606D0023C01A84F8503018BF4F
:101404000120A3E70220A1E72DE9F7431E4690F847
:101414005130012B044689461746DDB204D002251B
:10142400284603B0BDE8F0830029F9D0002AF7D09C
:101434004368B3F5827F0BD183684BB9042380F8EA
:101444005130134600960A46FFF7E2FE0546E7E7E9
:10145400FFF7C8F994F85030012B8046DFD0A2681A
:10146400C4F838900123002584F85030B2F5004FB9
:101474004FF0040384F85130C4E9105565652368BE
:10148400E787A7872563A586E58607D11A6822F032
:1014940040021A601A6822F480421A601A685506DB
:1014A4005EBF1A6842F040021A60E368F3B1E38F4A
:1014B4009BB2FBB123689A68D2073CD5DA68A36B68
:1014C40023F8022BA363E38F013B9BB2E387EEE790
:1014D40023689A68D0071ED5A26B1B7B1370A36B7D
:1014E4000133A363E38F013B9BB2E387E38F9BB29A
:1014F400002BEDD1424631462046FFF7FFFD18BBD5
:10150400012384F85130656D0023ED1A84F85030BE
:1015140018BF012584E7FFF765F9A0EB0800B04286
:10152400E4D3711CE2D0012384F85130002384F801
:101534005030032574E7FFF755F9A0EB0800B042DB
:10154400B5D3731CB3D0EEE720236365D8E7024418
:101554000346934200D1704703F8011BF9E70000EA
:1015640070B50D4D0D4C641BA4100026A64209D184
:101574000B4D0C4C00F018F8641BA4100026A64276
:1015840005D170BD55F8043B98470136EEE755F890
:10159400043B98470136F2E7DC150008DC15000827
:1015A400DC150008E0150008F8B500BFF8BC08BC5D
:1015B4009E467047F8B500BFF8BC08BC9E4670470D
:1015C40000000000000000000102030406070809EF
:0815D40060ECFF7F0100000044
:0415DC00E901000819
:0415E000C501000839
:0C15E4000024F4000100000010000000D2
:0400000508000701E7
:00000001FF
